:03000000020B08E8
:03000300022003D5
:03000B0002200BC5
:08001300308A030220130145AD
:03001B0002201BA5
:0300230002202395
:03002B0002202B85
:10003000A188A180C183C1E5C1F2A1DEC104A19064
:10004000C1C30202E9C0D0C0E0C2D3C2D4B180D1E2
:10005000C3B40D020193B42002212EB43F04313306
:10006000014DB45111C082C083901454D1F2D08399
:10007000D082C2AA212EB448043152014DB452029A
:10008000219BB453024131B441024167014D743D9B
:10009000B18822E8C0E0D1DC7453B1887450B188D3
:1000A000118EA881C0F0D18318D1DC120AE8118E1C
:1000B000E6D18318D1DC120AEE118EE6A2E7E43312
:1000C000D18DD1DC120AF9118EE583D183E582D17D
:1000D00083E43143A88118E6D18374013143E9D127
:1000E0008374023143EAD18374033143EBD18374C7
:1000F000043143ECD18374053143EDD1837406316F
:1001000043EED18374073143EFD183B1A1D1DC74C5
:1001100050B188120AEE118EC3E5819404F8C082B2
:10012000C083120BA5D083D082D0F0D0E0F8D0E00D
:10013000D0D032C082C083B1A1901CD5D1F2D0837F
:10014000D08222C0E0D1DC7452B188D0E0D18D11D0
:100150008E22C000C001C0F0C082C08390141FD1A5
:10016000F2D083D082E4D183743AB188D1DCE8D173
:1001700083D1DCE9D1837802790E2185E8D18374BB
:100180003AB1887910D1DCE6D18308D9F8B1A1B8A9
:1001900080EAB1A1D0F0D001D00022C0F0D1DC744F
:1001A00042B188118EE5F0D183D1DC7450B18874EE
:1001B00053B1887457B188118EE8C0E0A88118182F
:1001C00018E6D183D1DCC082C08390100DA8A8515D
:1001D00027901010A8B85127901013A88951279084
:1001E0001018A888512790101DA898512790102208
:1001F000A88751277454B1887430B188118EE58C6A
:10020000D183E58AD183D1DC7454B1887431B1884B
:10021000118EE58DD183E58BD183B1A1D083D082BE
:10022000D0E0F8D0F0014DD1F2118EE8D183D1DCCD
:1002300022C0F0E8C0E0E581C39404F8C082C08326
:100240009013FDD1F2120BA5E581C39406F8A683A5
:1002500018A68290140ED1F208120BA5D083D0827A
:10026000D0E0F8D0F0014DE8C0E0C0F0A881181847
:10027000C082C083901444D1F2B1DE400EF6B1A129
:10028000D083D082D0F0D0E0F8014D9008ABD1F20D
:10029000D083D082D0F0D0E0F8014DC082C08390EE
:1002A000128CD1F2B180B41B0A9012D5D1F2D08356
:1002B000D08222B43AEEB1DE40EFF8B1DE40EAF58A
:1002C00083B1DE40E4F582B1DE40DEB4010A901273
:1002D000F0D1F2D083D082220841E1B1DE40CAF0F1
:1002E000A3D8F8B1DE40C241A44387807589117557
:1002F0009850438852E57BA97AAA79AB7863015577
:100300006302CC63031DB50108B50205B503028085
:1003100048C28E758D00758B0020B0FD20B0F22094
:10032000B0EF20B0EC20B0E930B0FDD28E20B0FDAF
:1003300030B0FD20B0FD30B0FDC28EE58B33E58DD1
:1003400033F404F5F0F57B6455F57AE5F064CCF50B
:1003500079E5F0641DF578E5F0F58D758921D28E8B
:1003600022C082C083901538D1F2901489E4936042
:1003700029A3D1DCB1887804D1DCD8FCE493F5F072
:10038000A3E493A3A3A3C082C083F58285F083E492
:10039000D1F2B1A1D083D08280D4901563D1F2D0B4
:1003A00083D08222C082C083900812D1F2B180D162
:1003B000C3B41B0A9008ABD1F2D083D08222B43FE1
:1003C000239016B5D1F290083FD1F2B180B41B054D
:1003D000D083D08222901B8FD1F2901CD5D1F2D045
:1003E00083D08222B45307901334D1F28133901317
:1003F00009D1F290084FD1F2D083D082D1E5C082EA
:10040000C0839007E8D1F2D083D082D10450069007
:1004100008ABD1F222740DB188C082C0839013164C
:10042000D1F2D083D0827400C0E07400C0E0C082FA
:10043000C0832290084FD1F2D083D082C082C08383
:10044000D1E59007E8D1F2D083D082D104C082C038
:1004500083500C9008ABD1F2B1A1D083D08222C2DC
:100460008A30B30A90134CD1F2D083D08222900804
:100470006CD1F2B180D1C3B41B0A9008ABD1F2D0D9
:1004800083D08222B44C0575B800800375B80490FF
:1004900013C2D1F2D083D0827581387400C0E07469
:1004A00000C0E0E4C3780079017A007B007C007D25
:1004B000007E007F00C28AD2B375A884737A10B11F
:1004C000A17820D1E5743AB1887420B188E493F61C
:1004D000D1837420B188A308B830F2B1887820E6BF
:1004E000547FF5F0C39420500375F020E5F0B188F7
:1004F00008B830EBB1A1B1904002DAC5B1A122C079
:1005000083C082B1A19007F4D1F2D082D083C0839E
:10051000C082D104B1A14007B1A1D0E0D0E02290C7
:1005200008ABD1F2D082D083B1A122C082C0839027
:100530001237D1F2D083D082D1E5743AB188D1DCC0
:100540007428B188E0D183C082C08390089CD1F226
:10055000B1DE20D50C400AD083D082F0B1A1A3A196
:100560003890125ED1F2D083D082227A12B1A1EA01
:10057000C0E0F11BD0E0FAB1904002DAF2B1A12262
:100580003098FDC298E599223099FDF599C29922DB
:10059000C0E0C3309808E599B41B03D3C298D0E0FB
:1005A00022C0E0740DB188D0E022B180D1C3C3C2B3
:1005B000D5C2D2B40D03D2D522B41B02B322B408E3
:1005C00003D2D222B47F0280F8C0F0F5F0D1A5406A
:1005D00009C5F0B188C5F0D0F022D0F080CCB1AA26
:1005E00030D50122500122C4F5F0B1AA20D20F303B
:1005F000D506C2D5E5F0C42250012245F022740888
:10060000B18880DAC0E0E8C0E0E9C0E0EAC0E0EB31
:10061000C0E0B1AAF8405D20D55A20D2F5B1AAF9C0
:10062000405220D52B30D2067408B18880E4B1AA9C
:10063000FA404120D52130D2067408B18880DEB15D
:10064000AAFB403020D51A30D2207408B18880DE51
:100650007583008882801D758300E8C449F5828017
:10066000138883E9C44AF582800AE8C449F583EA1D
:10067000C44BF582D0E0FBD0E0FAD0E0F9D0E0F84E
:10068000D0E022C0E0C4D18DD0E0D18D22540F241F
:100690000383B1882230313233343536373839412B
:1006A0004243444546C3C0F09430F5F0940A4006F6
:1006B000E5F09407F5F0E5F0C354F06001D3E5F000
:1006C000D0F022C0F0F5F0C39461400B941A5007AB
:1006D000C3E5F09420F5F0E5F0D0F022C0E07420FE
:1006E000B188D0E022C0E0E583D183E582D183D018
:1006F000E022C0E0E4932098156010A2E7547F3018
:1007000099FDF599C2994003A380E9D0E022C298EF
:10071000E599B41BDF740DB18880F0D1E5E493A3B3
:10072000FBC083C08290102793FAEB90113793FEA1
:1007300054FC0303FFEE5403D082D083FE14600FF9
:10074000C0E0E493A3FCD0E0146004E493A3FDF1C3
:1007500081C082C083900EFEF1A9EFF8D0E0D0F006
:10076000C0F0C0E0FEE5F0FFE814C33375F07AC0D6
:10077000F075F007C0F09008BF73D083D082B1A1AC
:1007800022743AB188D1DCEBD183D1DCBE0104798B
:100790000B8011ECD183D1DCBE020479088005ED19
:1007A000D1837906D1DCD9FC227808EA930A18A211
:1007B000E7547FB188400280F2D1DCD8FC223E4C65
:1007C0006F633D003A202856657273696F6E203161
:1007D0002E302920436F6D6D616E643E004C6F6357
:1007E0006174696F6E2028003D44656661756C74A4
:1007F000293A20004E6577206D656D6F7279207003
:100800006F696E746572206C6F636174696F6E3AA4
:1008100020000D533D53696E676C652053746570FD
:100820002C204E3D4E6F726D616C202864656661B0
:10083000756C74292C203F3D48656C70203E00503B
:100840007265737320616E79206B65793A20000DB3
:100850000D52756E2066726F6D206D656D6F7279C9
:10086000206C6F616374696F6E2028000D0D496EF6
:1008700074657272757074207072696F72697479C0
:100880003E204C3D4C6F772C20483D4869676820DE
:100890002864656661756C74293A20002920204E11
:1008A00065772056616C75653A20002020436F6D96
:1008B0006D616E642041626F72746564210D002168
:1008C000A521B721BC21C121C621D121D821DE21FA
:1008D000E521F121FC4108410C4110411341164131
:1008E00019411C411F4127412E41324135413841B8
:1008F0003C413F4199414B41524159415D41644125
:1009000073417A41814188418C419341A241B04178
:10091000C341CA41D27452120588EB540712068DA6
:100920002274401205887452120588EB5401120695
:100930008D22EC20E705EC12068322900FBAE49397
:10094000A360F3F8C39C70041206F222E493A33070
:10095000E7FA80EAEC547823C4F8EC5480601590F0
:100960001127E893900F933582F582500205831288
:1009700006F28006E82420120683742E120588EC05
:10098000540712068D22EC20E708C33FFF500D0EDE
:10099000800AF404FCEFC39CFF50011EEE12068394
:1009A000EF12068322EE54F8F8EBC4035407481202
:1009B0000683EC1206832251F431152251F43132B0
:1009C0002251F431212251E851D951E2EC1206832F
:1009D00022313251D951E8223132EDFC21C851EE99
:1009E00051D931542251EE51D9742F120588315406
:1009F0002251F4313251D9EDFC31862251E851D9DE
:100A000051E2EC12068321F5311521FE312121FE40
:100A100051E82251EE223154223132223121225129
:100A2000E8744212058822311551D93186223132BB
:100A300021F531152251F922315421F53186225107
:100A4000D351E8742B12058851F922311551D9512F
:100A5000E822311551D9313222311521C8313251B4
:100A6000D9311522ECC0E0EDFC313251D9D0E0FC97
:100A7000313222313251D9312122312151D951E83B
:100A800022312151D9313222312121C8315451D959
:100A900051EE2251F951D951E2EC120683ED1206C2
:100AA000832251F451D351E8742B12058851F92255
:100AB00051F451D351E8742B1205887450120588F3
:100AC00051EE2251F451D351F92251D351F951D958
:100AD00051E822744012058822742C1205881206EF
:100AE000DC22742312058822744112058822744383
:100AF0001205882251E851D922C083C08290148403
:100B00001206F2D082D08322758130C2D3C2D412B1
:100B100002E9D299C29878081205A1D8FE900BD8A4
:100B20001206F2902000C082C0839007BE1206F227
:100B3000D083D0821206E5C082C0839007C412061B
:100B4000F21205801206C3F520901489E493604BDD
:100B5000B52040A3E493C0E0A3E493D0F0C082C0EA
:100B600083F58285F0831206F21205A1D083D0822C
:100B7000A3E493F522E4A393F521D023D024900B92
:100B800026C082C083852482852383C021C022227F
:100B9000020B26A3A3A3A3A3020B4CD083D08212E3
:100BA00005A1020B26E9C0E0EAC0E0EBC0E0ECC022
:100BB000E0EDC0E0EEC0E0EFC0E086831886821270
:100BC000071BD0E0FFD0E0FED0E0FDD0E0FCD0E09D
:100BD000FBD0E0FAD0E0F9220D2020200D202020CB
:100BE00020202020200C57656C636F6D6520746F8A
:100BF00020746865206E657720616E6420706F7365
:100C00007369626C79206576656E20696D70726FAC
:100C10007665642038303331206D6F6E69746F7281
:100C20002F64656275676765720D62792050617522
:100C30006C2053746F6666726567656E206F6E20F8
:100C400031342D4F43542D393120666F72206E6F31
:100C500020676F6F6420726561736F6E20776861C3
:100C600074736F657665722E2E2E0D0D5468657344
:100C7000652061726520736F6D65206F66207468F2
:100C800065206665617475726573206F666665724E
:100C90006564206279207468697320706172746978
:100CA00063756C61722064656275676765723A0D81
:100CB0000D2020202020446F776E6C6F61642070BF
:100CC000726F6772616D732066726F6D2050432082
:100CD000202020202020202020557365722D467270
:100CE00069656E646C696E65737321212121210D24
:100CF000202020202052756E2050726F6772616D27
:100D000020202020202020202020202020202020E3
:100D1000202020202020202055736573206E6F2016
:100D200065787465726E616C2052414D0D202020F3
:100D300020202020284E6F726D616C2C206F722055
:100D400073696E676C652D7374657029202020208F
:100D500020202020203C4553433E206B65792069AC
:100D60007320737570706F727465640D202020207D
:100D7000204C69737420617373656D626C652063C8
:100D80006F64652066726F6D206D656D6F7279207E
:100D9000202020206175746F6D6174696320626129
:100DA0007564207261746520646574656374696F2D
:100DB0006E0D20202020204865782044756D70201D
:100DC000616E6420456469742065787465726E6133
:100DD0006C2052414D20202020204F6E2D6C696EDA
:100DE000652068656C7020287479706520273F271E
:100DF000290D0D486F77657665722C20796F752007
:100E0000646F6E27742067657420736F6D657468F6
:100E1000696E2720666F72206E6F7468696E272E68
:100E20002E2E202054686520636F646520666F72E3
:100E300020746869732064656275676765720D72F6
:100E400065717569726573207175697465206120BB
:100E5000626974206D6F726520726F6F6D207468A7
:100E6000616E206973207479706963616C20666FAC
:100E70007220612064656275676765722C206275F7
:100E8000742069742077696C6C20616C6C0D6669E4
:100E90007420696E746F2061203237363420283810
:100EA0004B2078203829204550524F4D2E0D0D4EA5
:100EB0004F20436F70797269676874212120205038
:100EC0006C656173652064697374726962757465B9
:100ED00020667265656C792E20204D616B652061FE
:100EE00073206D616E7920636F7069657320617323
:100EF00020796F752077616E742E0D0D0D004143C2
:100F0000414CCC4144C420414444C3414A4DD041AA
:100F10004ECC434A4EC5434CD24350CC44C14445C9
:100F2000C34449D6444A4EDA494EC34AC24A42C330
:100F30004AC34A4DD04A4EC24A4EC34A4EDA4ADAF2
:100F40004C43414CCC4C4A4DD04D4FD64D4F56C3DF
:100F50004D4F56D84D55CC4E4FD04F52CC504FD010
:100F6000505553C85245D4524554C952CC524CC323
:100F700052D25252C3534554C2534A4DD053554294
:100F8000C2535741D05843C8584348C45852CC3F25
:100F90003FBF0050B054434FCE50B153434FCE509B
:100FA000B249C550B349D043B05432434FCE5053E9
:100FB000D744B84143C3FDC2FE00E04143C381535F
:100FC000D0824450CC834450C88050B09050B1A0DF
:100FD00050B2B050B399534255C6CD5448B2C854DC
:100FE00032434FCECC544CB2CB5243415032C8CA9C
:100FF0005243415032CC8C5448B08A544CB08D543A
:1010000048B18B544CB1F0C2D05053D7A849C5B8A1
:1010100049D089544D4FC48854434FCE9853434FC1
:10102000CE8750434FCE005A0E48732B2B2B2B2BC1
:101030002B2B2B2B2B2B2B300043752121212121F6
:10104000212121212121212E0E676E06060606068A
:101050000606060606060638006A700A0A0A0A0A22
:101060000A0A0A0A0A0A0A330E5D5D5D5D5D5D5D6E
:101070005D5D5D5D5D5D5D3B00121212121212122C
:1010800012121212121212410E8F8F8F8F8F8F8FAA
:101090008F8F8F8F8F8F8F3E005D354C4C4C4C4C1B
:1010A0004C4C4C4C4C4C4C7C0E124F244C4C4C4CED
:1010B0004C4C4C4C4C4C4C4C004C4F8080808080B5
:1010C000808080808080805D0E4C2B57924C4C4CF1
:1010D0004C4C4C4C4C4C4C12001C1C151515151549
:1010E00015151515151515630E1919848888888826
:1010F00088888888888888600078781F278B8B2765
:1011000027272727272727530E5353194C4C4C4C7E
:101110004C4C4C4C4C4C4C530053531C4C4C4C4C76
:101120004C4C4C4C4C4C4C000206080C0E1012144B
:10113000161B1E20232425AD066F3939464949590F
:101140005959595959595963066F393946494959B5
:10115000595959595959596306AD39160E11110982
:10116000090909090909096306AD39160E111109A2
:101170000909090909090966061A1F160E1111093C
:101180000909090909090966061A1F160E1111092C
:101190000909090909090966061A1F160E1111091C
:1011A0000909090909090966062269161F92867A42
:1011B0007A7A7A7A7A7A7A660622A14D8386867E50
:1011C0007E7E7E7E7E7E7E9B06969D160E1111098A
:1011D000090909090909092606225D4DAD8E8E7699
:1011E000767676767676762606423D2F2B3737331F
:1011F000333333333333334606423D390E1111094D
:10120000090909090909094606423D3957111152D0
:1012100052525252525252A5061111390E11110951
:1012200009090909090909A9068989391A898971E8
:10123000717171717171710D45646974696E6720A6
:1012400045787465726E616C2052414D2E2E2E3C95
:101250004553433E20746F20717569740D00202042
:1012600045646974696E672066696E697368656450
:101270002C2074686973206C6F636174696F6E20D1
:10128000756E6368616E6765640D0D000D0D4265D6
:1012900067696E206173636969207472616E736D32
:1012A000697373696F6E206F6620496E74656C2078
:1012B00048455820666F726D61742066696C652CB4
:1012C000206F72203C4553433E20746F2061626F53
:1012D00072740D0D00446F776E6C6F6164206162F3
:1012E0006F7274656420627920757365720D0D00EC
:1012F0000D0D0D0D446F776E6C6F616420636F6D23
:10130000706C657465640D0D0052756E206E6F72A1
:101310006D616C6C79000D4E6F772072756E6E6921
:101320006E67207468652070726F6772616D2E2E13
:101330002E0D0D0052756E20696E2073696E676CFC
:10134000652073746570206D6F6465000D0D5468C1
:10135000652073696E676C652073746570207275A3
:101360006E20666561747572652077696C6C206E9D
:101370006F742066756E6374696F6E20756E6C6530
:10138000737320494E5431202870696E2023313305
:10139000292069730D636F6E6E65637465642074D4
:1013A0006F2067726F756E64206F72206F7468654E
:1013B00072776973652068656C64206C6F772E0D99
:1013C0000D000D4E6F772072756E6E696E67206925
:1013D0006E2073696E676C652073746570206D6F25
:1013E00064653A20203C5245543E3D646566617513
:1013F0006C742C203F3D48656C700D0D00536B697B
:101400007070696E67202D2D2D2D2D2D3E004E659F
:1014100078742077696C6C206265202D2D3E000D5C
:101420004C6F633A2020496E7465726E616C205275
:10143000616D204D656D6F727920436F6E74656EBE
:1014400074730D004E6577204163632056616C759F
:10145000653A20000D517569742073696E676C657B
:101460002073746570206D6F64652C206E6F77201B
:1014700072756E6E696E67206E6F726D616C6C79DD
:101480002E0D0D0044505452003F150203615214BA
:10149000AD03A444150B029B4E14BA04FF4814CFAD
:1014A00004BD4C14EE056B451525052B0020527527
:1014B0006E2070726F6772616D00204E6577206DCF
:1014C000656D6F7279206C6F636174696F6E002057
:1014D0004845582044756D70204D656D6F727920B8
:1014E000746F207468652053637265656E00204CCC
:1014F00069737420617373656D626C7920636F64C6
:1015000065002048656C703F3F3F0020446F776E58
:101510006C6F61642070726F6772616D2066726FAC
:101520006D205043002045646974206578746572AD
:101530006E616C2072616D000C5468657365206388
:101540006F6D6D616E647320617265206375727278
:10155000656E746C7920737570706F727465643A1F
:101560000D0D000D416C6C206E756D6572696361C7
:101570006C2076616C756573206172652073686F8D
:10158000776E20696E206865782E20205072657312
:1015900073696E67203C4553433E206B6579207725
:1015A000696C6C2065786974207468650D63757268
:1015B00072656E7420636F6D6D616E642C2065764C
:1015C000656E207768696C65206C697374696E67F5
:1015D0002F64756D70696E672E20204D6F737420B7
:1015E00070726F6D707473207265717569726520A9
:1015F000610D73696E676C65206368617261637405
:1016000065722C207479706963616C6C79207468E0
:1016100065206669727374206C6574746572206FDE
:1016200066207468652064657369726564206F70F4
:1016300074696F6E2E0D0D466F7220696E666F7243
:101640006D6174696F6E20726567617264696E673F
:10165000207468652073696E676C652D737465709E
:101660002072756E20666561747572652C0D7479D3
:10167000706520273F27207768656E2061736B6552
:1016800064202753696E676C652D737465702F4EE7
:101690006F726D616C27206265666F72652072756E
:1016A0006E6E696E67207468652070726F67726114
:1016B0006D2E0D0D000C5468652073696E676C65A6
:1016C00020737465702072756E2066656174757222
:1016D0006520616C6C6F777320796F7520746F2053
:1016E0006578656375746520796F75722070726FA7
:1016F0006772616D2066726F6D206D656D6F7279B6
:101700000D6F6E6520696E737472756374696F6EA8
:1017100020617420612074696D652C207768696C84
:1017200065206D6F6E69746F72696E67207468658D
:101730002072656769737465727320616E642069D5
:101740006E737472756374696F6E732E0D497420B5
:101750006974204E4F5420612073696D756C6174FB
:10176000696F6E2C207468652070726F6772616D8E
:1017700020697320657865637574656420627920DB
:1017800074686520383033312F35312070726F63C3
:101790006573736F722E0D45787465726E616C207F
:1017A000496E74657272757074202331206D757383
:1017B000742062652068656C64206C6F7720746F9C
:1017C000206D616B65207468652073696E676C6558
:1017D00020737465702066756E6374696F6E2E0D6C
:1017E0000D4465737069746520617474656D7074FF
:1017F0007320746F206D616B652074686520736958
:101800006E676C6520737465702072756E20636FEF
:101810006D70617469626C65207769746820616CB1
:101820006C2070726F6772616D732C0D74686572D5
:10183000652077696C6C20616C77617973206265D3
:1018400020736F6D65206261736963206C696D69D7
:10185000746174696F6E732064756520746F20699C
:101860007473206E61747572653A0D0D20312D20F0
:1018700045787465726E616C20496E74657272751C
:101880007074202331206D757374206E6F74206224
:10189000652064697361626C65642C20652E672E17
:1018A000204D4F562049452C233831680D20322DCC
:1018B0002054696D6572202331206D757374206228
:1018C0006520636F72726563746C792067656E65FD
:1018D000726174696E672020746865206261756446
:1018E000207261746520666F72207468652073656C
:1018F0007269616C20706F72740D20332D20544911
:1019000020616E642052492077696C6C206E6F7480
:1019100020776F726B206E6F726D616C6C792C200A
:10192000652E672E20323030333A204A4E42205204
:10193000492C323030332C2075736520736B6970FD
:101940002E2E2E0D20342D20496E74657272757006
:1019500074732077696C6C206E6F742067657420D7
:1019600073657276696365206F722077696C6C208D
:10197000696E74657272757074207468652073691D
:101980006E676C6520737465700D20352D20416283
:101990006F7574203330206279746573206F662010
:1019A0007370616365206D757374206265206C656A
:1019B000667420617661696C61626C65206F6E206F
:1019C00074686520737461636B210D20362D203F90
:1019D0003F3F20204F746865722070726F626C65A3
:1019E0006D73206D617920616C736F206578697308
:1019F000742C2028746869732070726F6772616D2F
:101A000020697320465245452C20796F75206B6EF6
:101A10006F77290D0D506572686170732074686569
:101A200020776F727374206C696D69746174696F6B
:101A30006E206F66207468652073696E676C652020
:101A4000737465702072756E206973207468617498
:101A50002069742074616B657320610D76657279FD
:101A6000206C6F6E672074696D6520746F206578D7
:101A70006563757465206576656E2073686F727432
:101A800020706965636573206F6620636F64652EDF
:101A900020204974206973207265636F6D6D656ED7
:101AA00064656420746861740D61206E6F726D618D
:101AB0006C2072756E20626520617474656D70743F
:101AC000656420666972737420746F20657374692D
:101AD0006D61746520776865726520746865207033
:101AE000726F6772616D20676F65732061737472C6
:101AF00061792C0D74686520617474656D70742053
:101B0000612073696E676C65207374657020617401
:101B10002074686520626567696E6E696E67206F04
:101B20006620746865207175657374696F6E616293
:101B30006C6520636F64652C207769746820610D83
:101B400068617264636F7079206F662074686520C5
:101B5000617373656D626C79206C697374696E670B
:101B60002066696C65206F6E2D68616E6420666FFB
:101B700072206D656D6F7279206C6F636174696F2F
:101B80006E207265666572656E63652E0D0D000CC4
:101B90004265747765656E2073746570732C20746C
:101BA0006865206D6F6E69746F7220757365732040
:101BB0006162736F6C7574656C79204E4F20696E2D
:101BC0007465726E616C206F722065787465726ED8
:101BD000616C206D656D6F72792E0D486F7765763B
:101BE00065722C2061626F757420333020627974C5
:101BF0006573206F6620737461636B20737061631B
:101C000065206D757374206265206C656674206153
:101C10007661696C61626C652E2E2E0D0D447572B5
:101C2000696E6720612073696E676C6520737465E7
:101C3000702072756E2C207072657373696E6720E8
:101C400052455455524E2072657065617465646CDE
:101C5000792077696C6C20626520746865207573E3
:101C600075616C20636F757273650D6F66206163BB
:101C700074696F6E2E2020486F77657665722C2010
:101C80006F74686572206F7074696F6E7320617213
:101C90006520617661696C61626C652E0D0D202096
:101CA00020202020202020202020547970696E6779
:101CB00020273F272077696C6C20646973706C6102
:101CC0007920746869732068656C7020736372652D
:101CD000656E0D0D0053696E676C652053746570F9
:101CE00020436F6D6D616E64733A0D0D203C52455B
:101CF000543E202020205072696E74205374617409
:101D0000757320616E6420657865637574652074F1
:101D10006865206E65787420696E7374727563747B
:101D2000696F6E0D203C53504143453E202045785D
:101D30006563757465206E65787420696E7374725E
:101D4000756374696F6E20772F6F7574207374617B
:101D5000747573206C696E65730D2020273F2720F2
:101D600020202020446973706C6179207468697345
:101D7000206F6E2D6C696E652068656C700D20207B
:101D800027522720202020205072696E74206F7502
:101D900074205370656369616C2046756E63746965
:101DA0006F6E205265676973746572730D2020270A
:101DB000482720202020204865782064756D7020F9
:101DC000696E7465726E616C2072616D0D202027E2
:101DD00053272020202020536B697020746869737A
:101DE00020696E737472756374696F6E0D2020279D
:101DF000412720202020204368616E676520746899
:101E00006520416363756D756C61746F7227732013
:101E100076616C75650D2020275127202020202019
:101E2000517569742053696E676C652053746570D1
:101E30002C20636F6E74696E7565206578656375B7
:101E400074696E67206E6F726D616C6C790D0D0038
:00000001FF
